{
  "contractName": "Bazaar",
  "abi": [
    {
      "inputs": [
        {
          "internalType": "address",
          "name": "partyA",
          "type": "address"
        },
        {
          "internalType": "int256",
          "name": "balanceA",
          "type": "int256"
        },
        {
          "internalType": "address",
          "name": "partyB",
          "type": "address"
        },
        {
          "internalType": "int256",
          "name": "balanceB",
          "type": "int256"
        }
      ],
      "payable": false,
      "stateMutability": "nonpayable",
      "type": "constructor"
    },
    {
      "constant": true,
      "inputs": [],
      "name": "CurrentContractAddress",
      "outputs": [
        {
          "internalType": "address",
          "name": "",
          "type": "address"
        }
      ],
      "payable": false,
      "stateMutability": "view",
      "type": "function"
    },
    {
      "constant": true,
      "inputs": [],
      "name": "CurrentSeller",
      "outputs": [
        {
          "internalType": "address",
          "name": "",
          "type": "address"
        }
      ],
      "payable": false,
      "stateMutability": "view",
      "type": "function"
    },
    {
      "constant": true,
      "inputs": [],
      "name": "InstanceBazaarMaintainer",
      "outputs": [
        {
          "internalType": "address",
          "name": "",
          "type": "address"
        }
      ],
      "payable": false,
      "stateMutability": "view",
      "type": "function"
    },
    {
      "constant": true,
      "inputs": [],
      "name": "InstancePartyA",
      "outputs": [
        {
          "internalType": "address",
          "name": "",
          "type": "address"
        }
      ],
      "payable": false,
      "stateMutability": "view",
      "type": "function"
    },
    {
      "constant": true,
      "inputs": [],
      "name": "InstancePartyB",
      "outputs": [
        {
          "internalType": "address",
          "name": "",
          "type": "address"
        }
      ],
      "payable": false,
      "stateMutability": "view",
      "type": "function"
    },
    {
      "constant": true,
      "inputs": [],
      "name": "ItemName",
      "outputs": [
        {
          "internalType": "string",
          "name": "",
          "type": "string"
        }
      ],
      "payable": false,
      "stateMutability": "view",
      "type": "function"
    },
    {
      "constant": true,
      "inputs": [],
      "name": "ItemPrice",
      "outputs": [
        {
          "internalType": "int256",
          "name": "",
          "type": "int256"
        }
      ],
      "payable": false,
      "stateMutability": "view",
      "type": "function"
    },
    {
      "constant": true,
      "inputs": [],
      "name": "PartyABalance",
      "outputs": [
        {
          "internalType": "int256",
          "name": "",
          "type": "int256"
        }
      ],
      "payable": false,
      "stateMutability": "view",
      "type": "function"
    },
    {
      "constant": true,
      "inputs": [],
      "name": "PartyBBalance",
      "outputs": [
        {
          "internalType": "int256",
          "name": "",
          "type": "int256"
        }
      ],
      "payable": false,
      "stateMutability": "view",
      "type": "function"
    },
    {
      "constant": true,
      "inputs": [],
      "name": "State",
      "outputs": [
        {
          "internalType": "enum Bazaar.StateType",
          "name": "",
          "type": "uint8"
        }
      ],
      "payable": false,
      "stateMutability": "view",
      "type": "function"
    },
    {
      "constant": true,
      "inputs": [
        {
          "internalType": "address",
          "name": "buyer",
          "type": "address"
        },
        {
          "internalType": "int256",
          "name": "itemPrice",
          "type": "int256"
        }
      ],
      "name": "HasBalance",
      "outputs": [
        {
          "internalType": "bool",
          "name": "",
          "type": "bool"
        }
      ],
      "payable": false,
      "stateMutability": "view",
      "type": "function"
    },
    {
      "constant": false,
      "inputs": [
        {
          "internalType": "address",
          "name": "sellerParty",
          "type": "address"
        },
        {
          "internalType": "address",
          "name": "buyerParty",
          "type": "address"
        },
        {
          "internalType": "int256",
          "name": "itemPrice",
          "type": "int256"
        }
      ],
      "name": "UpdateBalance",
      "outputs": [],
      "payable": false,
      "stateMutability": "nonpayable",
      "type": "function"
    },
    {
      "constant": false,
      "inputs": [
        {
          "internalType": "address",
          "name": "party",
          "type": "address"
        },
        {
          "internalType": "int256",
          "name": "balance",
          "type": "int256"
        }
      ],
      "name": "ChangeBalance",
      "outputs": [],
      "payable": false,
      "stateMutability": "nonpayable",
      "type": "function"
    },
    {
      "constant": false,
      "inputs": [
        {
          "internalType": "string",
          "name": "itemName",
          "type": "string"
        },
        {
          "internalType": "int256",
          "name": "itemPrice",
          "type": "int256"
        }
      ],
      "name": "ListItem",
      "outputs": [],
      "payable": false,
      "stateMutability": "nonpayable",
      "type": "function"
    }
  ],
  "bytecode": "0x608060405234801561001057600080fd5b506040516118903803806118908339818101604052608081101561003357600080fd5b810190808051906020019092919080519060200190929190805190602001909291908051906020019092919050505033600460006101000a81548173ffffffffffffffffffffffffffffffffffffffff021916908373ffffffffffffffffffffffffffffffffffffffff1602179055508173ffffffffffffffffffffffffffffffffffffffff168473ffffffffffffffffffffffffffffffffffffffff1614156100dc57600080fd5b83600060016101000a81548173ffffffffffffffffffffffffffffffffffffffff021916908373ffffffffffffffffffffffffffffffffffffffff1602179055508260018190555081600260006101000a81548173ffffffffffffffffffffffffffffffffffffffff021916908373ffffffffffffffffffffffffffffffffffffffff1602179055508060038190555030600960006101000a81548173ffffffffffffffffffffffffffffffffffffffff021916908373ffffffffffffffffffffffffffffffffffffffff16021790555060008060006101000a81548160ff021916908360028111156101cb57fe5b0217905550505050506116ad806101e36000396000f3fe60806040523480156200001157600080fd5b5060043610620001005760003560e01c80638809882d1162000099578063a98ac906116200006f578063a98ac9061462000422578063e3bc655614620004aa578063f1b6dccd14620004f6578063f2146ccd14620005255762000100565b80638809882d146200033e57806390432935146200038a57806392d9de5114620003d65762000100565b80634ba9d38211620000db5780634ba9d38214620002415780634ffc5bd614620002615780636697950214620002ad57806383c9476814620002cd5762000100565b806306f7fa1614620001055780630ae2aae714620001d0578063339650d914620001f0575b600080fd5b620001ce600480360360408110156200011d57600080fd5b81019080803590602001906401000000008111156200013b57600080fd5b8201836020820111156200014e57600080fd5b803590602001918460018302840111640100000000831117156200017157600080fd5b91908080601f016020809104026020016040519081016040528093929190818152602001838380828437600081840152601f19601f820116905080830192505050505050509192919290803590602001909291905050506200058e565b005b620001da62000836565b6040518082815260200191505060405180910390f35b6200023f600480360360408110156200020857600080fd5b81019080803573ffffffffffffffffffffffffffffffffffffffff169060200190929190803590602001909291905050506200083c565b005b6200024b62000910565b6040518082815260200191505060405180910390f35b6200026b62000916565b604051808273ffffffffffffffffffffffffffffffffffffffff1673ffffffffffffffffffffffffffffffffffffffff16815260200191505060405180910390f35b620002b76200093c565b6040518082815260200191505060405180910390f35b6200033c60048036036060811015620002e557600080fd5b81019080803573ffffffffffffffffffffffffffffffffffffffff169060200190929190803573ffffffffffffffffffffffffffffffffffffffff1690602001909291908035906020019092919050505062000942565b005b6200034862000986565b604051808273ffffffffffffffffffffffffffffffffffffffff1673ffffffffffffffffffffffffffffffffffffffff16815260200191505060405180910390f35b62000394620009ac565b604051808273ffffffffffffffffffffffffffffffffffffffff1673ffffffffffffffffffffffffffffffffffffffff16815260200191505060405180910390f35b620003e0620009d2565b604051808273ffffffffffffffffffffffffffffffffffffffff1673ffffffffffffffffffffffffffffffffffffffff16815260200191505060405180910390f35b6200042c620009f8565b6040518080602001828103825283818151815260200191508051906020019080838360005b838110156200046e57808201518184015260208101905062000451565b50505050905090810190601f1680156200049c5780820380516001836020036101000a031916815260200191505b509250505060405180910390f35b620004b462000a9a565b604051808273ffffffffffffffffffffffffffffffffffffffff1673ffffffffffffffffffffffffffffffffffffffff16815260200191505060405180910390f35b6200050062000ac0565b604051808260028111156200051157fe5b60ff16815260200191505060405180910390f35b62000574600480360360408110156200053d57600080fd5b81019080803573ffffffffffffffffffffffffffffffffffffffff1690602001909291908035906020019092919050505062000ad2565b604051808215151515815260200191505060405180910390f35b33600560006101000a81548173ffffffffffffffffffffffffffffffffffffffff021916908373ffffffffffffffffffffffffffffffffffffffff1602179055508181600560009054906101000a900473ffffffffffffffffffffffffffffffffffffffff16600960009054906101000a900473ffffffffffffffffffffffffffffffffffffffff16600060019054906101000a900473ffffffffffffffffffffffffffffffffffffffff16600260009054906101000a900473ffffffffffffffffffffffffffffffffffffffff166040516200066b9062000ba8565b80806020018781526020018673ffffffffffffffffffffffffffffffffffffffff1673ffffffffffffffffffffffffffffffffffffffff1681526020018573ffffffffffffffffffffffffffffffffffffffff1673ffffffffffffffffffffffffffffffffffffffff1681526020018473ffffffffffffffffffffffffffffffffffffffff1673ffffffffffffffffffffffffffffffffffffffff1681526020018373ffffffffffffffffffffffffffffffffffffffff1673ffffffffffffffffffffffffffffffffffffffff168152602001828103825288818151815260200191508051906020019080838360005b83811015620007785780820151818401526020810190506200075b565b50505050905090810190601f168015620007a65780820380516001836020036101000a031916815260200191505b50975050505050505050604051809103906000f080158015620007cd573d6000803e3d6000fd5b50600860006101000a81548173ffffffffffffffffffffffffffffffffffffffff021916908373ffffffffffffffffffffffffffffffffffffffff16021790555060016000806101000a81548160ff021916908360028111156200082d57fe5b02179055505050565b60015481565b600060019054906101000a900473ffffffffffffffffffffffffffffffffffffffff1673ffffffffffffffffffffffffffffffffffffffff168273ffffffffffffffffffffffffffffffffffffffff161415620008a457806001600082825401925050819055505b600260009054906101000a900473ffffffffffffffffffffffffffffffffffffffff1673ffffffffffffffffffffffffffffffffffffffff168273ffffffffffffffffffffffffffffffffffffffff1614156200090c57806003600082825401925050819055505b5050565b60075481565b600060019054906101000a900473ffffffffffffffffffffffffffffffffffffffff1681565b60035481565b6200094e83826200083c565b6200095d82826000036200083c565b60026000806101000a81548160ff021916908360028111156200097c57fe5b0217905550505050565b600260009054906101000a900473ffffffffffffffffffffffffffffffffffffffff1681565b600560009054906101000a900473ffffffffffffffffffffffffffffffffffffffff1681565b600960009054906101000a900473ffffffffffffffffffffffffffffffffffffffff1681565b60068054600181600116156101000203166002900480601f01602080910402602001604051908101604052809291908181526020018280546001816001161561010002031660029004801562000a925780601f1062000a665761010080835404028352916020019162000a92565b820191906000526020600020905b81548152906001019060200180831162000a7457829003601f168201915b505050505081565b600460009054906101000a900473ffffffffffffffffffffffffffffffffffffffff1681565b6000809054906101000a900460ff1681565b60008060019054906101000a900473ffffffffffffffffffffffffffffffffffffffff1673ffffffffffffffffffffffffffffffffffffffff168373ffffffffffffffffffffffffffffffffffffffff16141562000b3857816001541215905062000ba2565b600260009054906101000a900473ffffffffffffffffffffffffffffffffffffffff1673ffffffffffffffffffffffffffffffffffffffff168373ffffffffffffffffffffffffffffffffffffffff16141562000b9d57816003541215905062000ba2565b600090505b92915050565b610ac28062000bb78339019056fe608060405234801561001057600080fd5b50604051610ac2380380610ac2833981810160405260c081101561003357600080fd5b810190808051604051939291908464010000000082111561005357600080fd5b8382019150602082018581111561006957600080fd5b825186600182028301116401000000008211171561008657600080fd5b8083526020830192505050908051906020019080838360005b838110156100ba57808201518184015260208101905061009f565b50505050905090810190601f1680156100e75780820380516001836020036101000a031916815260200191505b50604052602001805190602001909291908051906020019092919080519060200190929190805190602001909291908051906020019092919050505083600060016101000a81548173ffffffffffffffffffffffffffffffffffffffff021916908373ffffffffffffffffffffffffffffffffffffffff16021790555082600260006101000a81548173ffffffffffffffffffffffffffffffffffffffff021916908373ffffffffffffffffffffffffffffffffffffffff16021790555085600390805190602001906101bb929190610273565b508460048190555081600560006101000a81548173ffffffffffffffffffffffffffffffffffffffff021916908373ffffffffffffffffffffffffffffffffffffffff16021790555080600660006101000a81548173ffffffffffffffffffffffffffffffffffffffff021916908373ffffffffffffffffffffffffffffffffffffffff16021790555060008060006101000a81548160ff0219169083600181111561026357fe5b0217905550505050505050610318565b828054600181600116156101000203166002900490600052602060002090601f016020900481019282601f106102b457805160ff19168380011785556102e2565b828001600101855582156102e2579182015b828111156102e15782518255916020019190600101906102c6565b5b5090506102ef91906102f3565b5090565b61031591905b808211156103115760008160009055506001016102f9565b5090565b90565b61079b806103276000396000f3fe608060405234801561001057600080fd5b50600436106100935760003560e01c8063a98ac90611610066578063a98ac90614610194578063af3465f614610217578063b7303ba114610221578063f1b6dccd1461026b578063f7066a191461029757610093565b806307fd3687146100985780634ba9d382146100e257806356d60b7614610100578063696d39ff1461014a575b600080fd5b6100a06102e1565b604051808273ffffffffffffffffffffffffffffffffffffffff1673ffffffffffffffffffffffffffffffffffffffff16815260200191505060405180910390f35b6100ea610307565b6040518082815260200191505060405180910390f35b61010861030d565b604051808273ffffffffffffffffffffffffffffffffffffffff1673ffffffffffffffffffffffffffffffffffffffff16815260200191505060405180910390f35b610152610333565b604051808273ffffffffffffffffffffffffffffffffffffffff1673ffffffffffffffffffffffffffffffffffffffff16815260200191505060405180910390f35b61019c610359565b6040518080602001828103825283818151815260200191508051906020019080838360005b838110156101dc5780820151818401526020810190506101c1565b50505050905090810190601f1680156102095780820380516001836020036101000a031916815260200191505b509250505060405180910390f35b61021f6103f7565b005b610229610708565b604051808273ffffffffffffffffffffffffffffffffffffffff1673ffffffffffffffffffffffffffffffffffffffff16815260200191505060405180910390f35b61027361072e565b6040518082600181111561028357fe5b60ff16815260200191505060405180910390f35b61029f610740565b604051808273ffffffffffffffffffffffffffffffffffffffff1673ffffffffffffffffffffffffffffffffffffffff16815260200191505060405180910390f35b600060019054906101000a900473ffffffffffffffffffffffffffffffffffffffff1681565b60045481565b600660009054906101000a900473ffffffffffffffffffffffffffffffffffffffff1681565b600560009054906101000a900473ffffffffffffffffffffffffffffffffffffffff1681565b60038054600181600116156101000203166002900480601f0160208091040260200160405190810160405280929190818152602001828054600181600116156101000203166002900480156103ef5780601f106103c4576101008083540402835291602001916103ef565b820191906000526020600020905b8154815290600101906020018083116103d257829003601f168201915b505050505081565b33600160006101000a81548173ffffffffffffffffffffffffffffffffffffffff021916908373ffffffffffffffffffffffffffffffffffffffff160217905550600160009054906101000a900473ffffffffffffffffffffffffffffffffffffffff1673ffffffffffffffffffffffffffffffffffffffff16600060019054906101000a900473ffffffffffffffffffffffffffffffffffffffff1673ffffffffffffffffffffffffffffffffffffffff1614156104b557600080fd5b6000600260009054906101000a900473ffffffffffffffffffffffffffffffffffffffff1690508073ffffffffffffffffffffffffffffffffffffffff1663f2146ccd600160009054906101000a900473ffffffffffffffffffffffffffffffffffffffff166004546040518363ffffffff1660e01b8152600401808373ffffffffffffffffffffffffffffffffffffffff1673ffffffffffffffffffffffffffffffffffffffff1681526020018281526020019250505060206040518083038186803b15801561058557600080fd5b505afa158015610599573d6000803e3d6000fd5b505050506040513d60208110156105af57600080fd5b81019080805190602001909291905050506105c957600080fd5b8073ffffffffffffffffffffffffffffffffffffffff166383c94768600060019054906101000a900473ffffffffffffffffffffffffffffffffffffffff16600160009054906101000a900473ffffffffffffffffffffffffffffffffffffffff166004546040518463ffffffff1660e01b8152600401808473ffffffffffffffffffffffffffffffffffffffff1673ffffffffffffffffffffffffffffffffffffffff1681526020018373ffffffffffffffffffffffffffffffffffffffff1673ffffffffffffffffffffffffffffffffffffffff1681526020018281526020019350505050600060405180830381600087803b1580156106ca57600080fd5b505af11580156106de573d6000803e3d6000fd5b5050505060016000806101000a81548160ff0219169083600181111561070057fe5b021790555050565b600160009054906101000a900473ffffffffffffffffffffffffffffffffffffffff1681565b6000809054906101000a900460ff1681565b600260009054906101000a900473ffffffffffffffffffffffffffffffffffffffff168156fea265627a7a72315820834fe407a3cc5b7af3fb4e46e17b27a44776913b9616fbc2e1fbe211b58a4ef264736f6c63430005100032a265627a7a723158206556d31fad386833cfc4481f0f3d5b4ca71495840213702c8593e8f79925b97b64736f6c63430005100032",
  "source": "pragma solidity >=0.4.25 <0.6.0;\r\n\r\nimport \"./ItemListing.sol\";\r\n\r\ncontract Bazaar\r\n{\r\n    enum StateType { PartyProvisioned, ItemListed, CurrentSaleFinalized}\r\n\r\n    StateType public State;\r\n\r\n    address public InstancePartyA;\r\n    int public PartyABalance;\r\n\r\n    address public InstancePartyB;\r\n    int public PartyBBalance;\r\n\r\n    address public InstanceBazaarMaintainer;\r\n    address public CurrentSeller;\r\n\r\n    string public ItemName;\r\n    int public ItemPrice;\r\n\r\n    ItemListing currentItemListing;\r\n    address public CurrentContractAddress;\r\n\r\n    constructor(address partyA, int balanceA, address partyB, int balanceB) public {\r\n        InstanceBazaarMaintainer = msg.sender;\r\n\r\n        // ensure the two parties are different\r\n        if (partyA == partyB) {\r\n            revert();\r\n        }\r\n\r\n        InstancePartyA = partyA;\r\n        PartyABalance = balanceA;\r\n\r\n        InstancePartyB = partyB;\r\n        PartyBBalance = balanceB;\r\n\r\n        CurrentContractAddress = address(this);\r\n\r\n        State = StateType.PartyProvisioned;\r\n    }\r\n\r\n    function HasBalance(address buyer, int itemPrice) public view returns (bool) {\r\n        if (buyer == InstancePartyA) {\r\n            return (PartyABalance >= itemPrice);\r\n        }\r\n\r\n        if (buyer == InstancePartyB) {\r\n            return (PartyBBalance >= itemPrice);\r\n        }\r\n\r\n        return false;\r\n    }\r\n\r\n    function UpdateBalance(address sellerParty, address buyerParty, int itemPrice) public {\r\n        ChangeBalance(sellerParty, itemPrice);\r\n        ChangeBalance(buyerParty, -itemPrice);\r\n\r\n        State = StateType.CurrentSaleFinalized;\r\n    }\r\n\r\n    function ChangeBalance(address party, int balance) public {\r\n        if (party == InstancePartyA) {\r\n            PartyABalance += balance;\r\n        }\r\n\r\n        if (party == InstancePartyB) {\r\n            PartyBBalance += balance;\r\n        }\r\n    }\r\n\r\n    function ListItem(string memory itemName, int itemPrice) public\r\n    {\r\n        CurrentSeller = msg.sender;\r\n\r\n        currentItemListing = new ItemListing(itemName, itemPrice, CurrentSeller, CurrentContractAddress, InstancePartyA, InstancePartyB);\r\n\r\n        State = StateType.ItemListed;\r\n    }\r\n}\r\n",
  "sourcePath": "/home/zehra/marketplace/src/contracts/BazaarItemListing.sol",
  "compiler": {
    "name": "solc",
    "version": "0.5.16+commit.9c3226ce.Emscripten.clang"
  },
  "schemaVersion": "3.4.1",
  "updatedAt": "2021-07-12T19:54:25.143Z",
  "devdoc": {
    "methods": {}
  },
  "userdoc": {
    "methods": {}
  }
}