{
  "contractName": "ItemListing",
  "abi": [
    {
      "inputs": [
        {
          "internalType": "string",
          "name": "itemName",
          "type": "string"
        },
        {
          "internalType": "int256",
          "name": "itemPrice",
          "type": "int256"
        },
        {
          "internalType": "address",
          "name": "seller",
          "type": "address"
        },
        {
          "internalType": "address",
          "name": "parentContractAddress",
          "type": "address"
        },
        {
          "internalType": "address",
          "name": "partyA",
          "type": "address"
        },
        {
          "internalType": "address",
          "name": "partyB",
          "type": "address"
        }
      ],
      "payable": false,
      "stateMutability": "nonpayable",
      "type": "constructor"
    },
    {
      "constant": true,
      "inputs": [],
      "name": "InstanceBuyer",
      "outputs": [
        {
          "internalType": "address",
          "name": "",
          "type": "address"
        }
      ],
      "payable": false,
      "stateMutability": "view",
      "type": "function"
    },
    {
      "constant": true,
      "inputs": [],
      "name": "ItemName",
      "outputs": [
        {
          "internalType": "string",
          "name": "",
          "type": "string"
        }
      ],
      "payable": false,
      "stateMutability": "view",
      "type": "function"
    },
    {
      "constant": true,
      "inputs": [],
      "name": "ItemPrice",
      "outputs": [
        {
          "internalType": "int256",
          "name": "",
          "type": "int256"
        }
      ],
      "payable": false,
      "stateMutability": "view",
      "type": "function"
    },
    {
      "constant": true,
      "inputs": [],
      "name": "ParentContract",
      "outputs": [
        {
          "internalType": "address",
          "name": "",
          "type": "address"
        }
      ],
      "payable": false,
      "stateMutability": "view",
      "type": "function"
    },
    {
      "constant": true,
      "inputs": [],
      "name": "PartyA",
      "outputs": [
        {
          "internalType": "address",
          "name": "",
          "type": "address"
        }
      ],
      "payable": false,
      "stateMutability": "view",
      "type": "function"
    },
    {
      "constant": true,
      "inputs": [],
      "name": "PartyB",
      "outputs": [
        {
          "internalType": "address",
          "name": "",
          "type": "address"
        }
      ],
      "payable": false,
      "stateMutability": "view",
      "type": "function"
    },
    {
      "constant": true,
      "inputs": [],
      "name": "Seller",
      "outputs": [
        {
          "internalType": "address",
          "name": "",
          "type": "address"
        }
      ],
      "payable": false,
      "stateMutability": "view",
      "type": "function"
    },
    {
      "constant": true,
      "inputs": [],
      "name": "State",
      "outputs": [
        {
          "internalType": "enum ItemListing.StateType",
          "name": "",
          "type": "uint8"
        }
      ],
      "payable": false,
      "stateMutability": "view",
      "type": "function"
    },
    {
      "constant": false,
      "inputs": [],
      "name": "BuyItem",
      "outputs": [],
      "payable": false,
      "stateMutability": "nonpayable",
      "type": "function"
    }
  ],
  "bytecode": "0x608060405234801561001057600080fd5b50604051610ac2380380610ac2833981810160405260c081101561003357600080fd5b810190808051604051939291908464010000000082111561005357600080fd5b8382019150602082018581111561006957600080fd5b825186600182028301116401000000008211171561008657600080fd5b8083526020830192505050908051906020019080838360005b838110156100ba57808201518184015260208101905061009f565b50505050905090810190601f1680156100e75780820380516001836020036101000a031916815260200191505b50604052602001805190602001909291908051906020019092919080519060200190929190805190602001909291908051906020019092919050505083600060016101000a81548173ffffffffffffffffffffffffffffffffffffffff021916908373ffffffffffffffffffffffffffffffffffffffff16021790555082600260006101000a81548173ffffffffffffffffffffffffffffffffffffffff021916908373ffffffffffffffffffffffffffffffffffffffff16021790555085600390805190602001906101bb929190610273565b508460048190555081600560006101000a81548173ffffffffffffffffffffffffffffffffffffffff021916908373ffffffffffffffffffffffffffffffffffffffff16021790555080600660006101000a81548173ffffffffffffffffffffffffffffffffffffffff021916908373ffffffffffffffffffffffffffffffffffffffff16021790555060008060006101000a81548160ff0219169083600181111561026357fe5b0217905550505050505050610318565b828054600181600116156101000203166002900490600052602060002090601f016020900481019282601f106102b457805160ff19168380011785556102e2565b828001600101855582156102e2579182015b828111156102e15782518255916020019190600101906102c6565b5b5090506102ef91906102f3565b5090565b61031591905b808211156103115760008160009055506001016102f9565b5090565b90565b61079b806103276000396000f3fe608060405234801561001057600080fd5b50600436106100935760003560e01c8063a98ac90611610066578063a98ac90614610194578063af3465f614610217578063b7303ba114610221578063f1b6dccd1461026b578063f7066a191461029757610093565b806307fd3687146100985780634ba9d382146100e257806356d60b7614610100578063696d39ff1461014a575b600080fd5b6100a06102e1565b604051808273ffffffffffffffffffffffffffffffffffffffff1673ffffffffffffffffffffffffffffffffffffffff16815260200191505060405180910390f35b6100ea610307565b6040518082815260200191505060405180910390f35b61010861030d565b604051808273ffffffffffffffffffffffffffffffffffffffff1673ffffffffffffffffffffffffffffffffffffffff16815260200191505060405180910390f35b610152610333565b604051808273ffffffffffffffffffffffffffffffffffffffff1673ffffffffffffffffffffffffffffffffffffffff16815260200191505060405180910390f35b61019c610359565b6040518080602001828103825283818151815260200191508051906020019080838360005b838110156101dc5780820151818401526020810190506101c1565b50505050905090810190601f1680156102095780820380516001836020036101000a031916815260200191505b509250505060405180910390f35b61021f6103f7565b005b610229610708565b604051808273ffffffffffffffffffffffffffffffffffffffff1673ffffffffffffffffffffffffffffffffffffffff16815260200191505060405180910390f35b61027361072e565b6040518082600181111561028357fe5b60ff16815260200191505060405180910390f35b61029f610740565b604051808273ffffffffffffffffffffffffffffffffffffffff1673ffffffffffffffffffffffffffffffffffffffff16815260200191505060405180910390f35b600060019054906101000a900473ffffffffffffffffffffffffffffffffffffffff1681565b60045481565b600660009054906101000a900473ffffffffffffffffffffffffffffffffffffffff1681565b600560009054906101000a900473ffffffffffffffffffffffffffffffffffffffff1681565b60038054600181600116156101000203166002900480601f0160208091040260200160405190810160405280929190818152602001828054600181600116156101000203166002900480156103ef5780601f106103c4576101008083540402835291602001916103ef565b820191906000526020600020905b8154815290600101906020018083116103d257829003601f168201915b505050505081565b33600160006101000a81548173ffffffffffffffffffffffffffffffffffffffff021916908373ffffffffffffffffffffffffffffffffffffffff160217905550600160009054906101000a900473ffffffffffffffffffffffffffffffffffffffff1673ffffffffffffffffffffffffffffffffffffffff16600060019054906101000a900473ffffffffffffffffffffffffffffffffffffffff1673ffffffffffffffffffffffffffffffffffffffff1614156104b557600080fd5b6000600260009054906101000a900473ffffffffffffffffffffffffffffffffffffffff1690508073ffffffffffffffffffffffffffffffffffffffff1663f2146ccd600160009054906101000a900473ffffffffffffffffffffffffffffffffffffffff166004546040518363ffffffff1660e01b8152600401808373ffffffffffffffffffffffffffffffffffffffff1673ffffffffffffffffffffffffffffffffffffffff1681526020018281526020019250505060206040518083038186803b15801561058557600080fd5b505afa158015610599573d6000803e3d6000fd5b505050506040513d60208110156105af57600080fd5b81019080805190602001909291905050506105c957600080fd5b8073ffffffffffffffffffffffffffffffffffffffff166383c94768600060019054906101000a900473ffffffffffffffffffffffffffffffffffffffff16600160009054906101000a900473ffffffffffffffffffffffffffffffffffffffff166004546040518463ffffffff1660e01b8152600401808473ffffffffffffffffffffffffffffffffffffffff1673ffffffffffffffffffffffffffffffffffffffff1681526020018373ffffffffffffffffffffffffffffffffffffffff1673ffffffffffffffffffffffffffffffffffffffff1681526020018281526020019350505050600060405180830381600087803b1580156106ca57600080fd5b505af11580156106de573d6000803e3d6000fd5b5050505060016000806101000a81548160ff0219169083600181111561070057fe5b021790555050565b600160009054906101000a900473ffffffffffffffffffffffffffffffffffffffff1681565b6000809054906101000a900460ff1681565b600260009054906101000a900473ffffffffffffffffffffffffffffffffffffffff168156fea265627a7a72315820834fe407a3cc5b7af3fb4e46e17b27a44776913b9616fbc2e1fbe211b58a4ef264736f6c63430005100032",
  "source": "pragma solidity >=0.4.25 <0.6.0;\r\n\r\nimport \"./BazaarItemListing.sol\";\r\n\r\ncontract ItemListing\r\n{\r\n    enum StateType { ItemAvailable, ItemSold }\r\n\r\n    StateType public State;\r\n\r\n    address public Seller;\r\n    address public InstanceBuyer;\r\n    address public ParentContract;\r\n    string public ItemName;\r\n    int public ItemPrice;\r\n    address public PartyA;\r\n    address public PartyB;\r\n\r\n    constructor(string memory itemName, int itemPrice, address seller, address parentContractAddress, address partyA, address partyB) public {\r\n        Seller = seller;\r\n        ParentContract = parentContractAddress;\r\n        ItemName = itemName;\r\n        ItemPrice = itemPrice;\r\n\r\n        PartyA = partyA;\r\n        PartyB = partyB;\r\n\r\n        State = StateType.ItemAvailable;\r\n    }\r\n\r\n    function BuyItem() public\r\n    {\r\n        InstanceBuyer = msg.sender;\r\n\r\n        // ensure that the buyer is not the seller\r\n        if (Seller == InstanceBuyer) {\r\n            revert();\r\n        }\r\n\r\n        Bazaar bazaar = Bazaar(ParentContract);\r\n\r\n        // check Buyer's balance\r\n        if (!bazaar.HasBalance(InstanceBuyer, ItemPrice)) {\r\n            revert();\r\n        }\r\n\r\n        // indicate item bought by updating seller and buyer balances\r\n        bazaar.UpdateBalance(Seller, InstanceBuyer, ItemPrice);\r\n\r\n        State = StateType.ItemSold;\r\n    }\r\n}",
  "sourcePath": "/home/zehra/marketplace/src/contracts/ItemListing.sol",
  "compiler": {
    "name": "solc",
    "version": "0.5.16+commit.9c3226ce.Emscripten.clang"
  },
  "schemaVersion": "3.4.1",
  "updatedAt": "2021-07-12T19:54:25.144Z",
  "devdoc": {
    "methods": {}
  },
  "userdoc": {
    "methods": {}
  }
}